:100000000C942A000C9447000C9447000C94470071
:100010000C9447000C9447000C9447000C945B042C
:100020000C9447000C9447000C9447000C94470034
:100030000C9447000C9447000C9447000C94470024
:100040000C9447000C9447000C9447000C94470014
:100050000C94470011241FBECFE5D8E0DEBFCDBF12
:1000600010E0A0E6B0E0ECEAFDE102C005900D92E0
:10007000AA37B107D9F726E0AAE7B0E001C01D9280
:10008000AE3BB207E1F70E94D3020C94D40E0C945D
:1000900000000F931F93CF93DF93EC010E9431096F
:1000A00080917A0081111DC0EFE7F0E084E890E0D4
:1000B0009183808313821282EBE7F0E08BED95E071
:1000C0009383828311821082A3E8B0E014969C93FC
:1000D0008E9313971296FC93EE93119781E0809381
:1000E0007A00209709F45FC09E012C5F3F4F239652
:1000F000CA3DD54008F05AC0E0917F00F0918000E1
:10010000AFE7B0E002C0DF01FC018281938182177A
:10011000930720F4808191810097A9F7C0E0EB3725
:10012000FC0709F446C0CD91DC9111978E010C5F5C
:100130001F4F808191818D939C9382819381821B3B
:10014000930B8930910510F1BF01620F731FDB0122
:1001500013969C938E9312973383228312964D911C
:100160005C9113978FE790E001C0CD01EC01A8816D
:10017000B98112962D913C91139724173507A8F356
:10018000EB01B983A883DC016D937C9380916000BF
:100190009091610022813381821B930B90936100C7
:1001A0008093600008C000E010E005C000E010E0AF
:1001B00002C000E010E00E94F209C801DF91CF9177
:1001C0001F910F9108950F931F93CF93DF93009783
:1001D00041F1EC018C01045011090E943109F80130
:1001E00042815381AFE7B0E001C0DF01ED91FC91A6
:1001F00011972281338124173507B8F32497F983A7
:10020000E8830D931C9320916000309161008A81F6
:100210009B81820F931F90936100809360000E94E6
:10022000F209DF91CF911F910F910895E0E1F0E085
:1002300060E070E0862F9F01062E02C0220F331F60
:100240000A94E2F72ABB20952BBBC89B0EC041E065
:1002500050E0942F29B330E0042E02C03595279545
:100260000A94E2F720FD14C001C090E08F5F292FAF
:10027000220F920F890F8B3029F08C3029F08A30B1
:1002800091F404C080E0089583E208958AE208951D
:100290004F5F5F4F44305105E1F66F5F7F4F633032
:1002A000710541F6C5CF08959498959885BB89EF5F
:1002B00090E00197F1F700C00000969A89EF90E076
:1002C0000197F1F700C00000969889EF90E0019740
:1002D000F1F700C0000008958FEF84BB81B3806701
:1002E00081BB88E30E9454018CE00E94540181E0AC
:1002F0000E9454010895949A9598969AE9EFF0E037
:100300003197F1F700C0000085BB89EF90E00197BD
:10031000F1F700C00000969AE9EFF0E03197F1F7AD
:1003200000C00000969889EF90E00197F1F700C0B7
:10033000000008950F931F93CF93FC0180818823C1
:1003400059F08F01C0E00E947B01CF5FF801EC0FF4
:10035000F11D80818111F7CFCF911F910F910895E9
:10036000882319F0813019F004C0962F02C090E460
:10037000960F892F80680E9454010895CF93DF93D0
:10038000CDB7DEB760970FB6F894DEBF0FBECDBF16
:100390004AE050E0BE016F5F7F4F0E94AA0BCE0182
:1003A00001960E949A0160960FB6F894DEBF0FBEC8
:1003B000CDBFDF91CF910895FC0103969283818395
:1003C0002FEF3FEF34832383968385839087878342
:1003D00010820895FC01118610860895CF93DF9353
:1003E0009C01FB01DC011196CD91DC911297D38326
:1003F000C2838C819D81958384838C819D81DC0166
:1004000013967C936E9312977D836C83318720873C
:10041000F90180818F5F8083DF91CF910895CF9321
:10042000DF93EB01488159814F3F2FEF520721F4B1
:10043000FC01A781B0850DC0DC01139601C0DF016E
:100440001296ED91FC911397208131814217530749
:10045000B0F71296ED91FC911397FB83EA83D58355
:10046000C483BD83AC831396DC93CE931297998794
:100470008887FC0120812F5F2083DF91CF91089531
:10048000CF93DF93FC01A085B185C281D3818481A4
:1004900095819D838C83C481D581828193819B8347
:1004A0008A8311968D919C911297E817F90731F480
:1004B0008481958112969C938E9311971186108654
:1004C0008C9181508C938C91DF91CF910895CF9333
:1004D000DF931F92CDB7DEB719820E941601898380
:1004E0008CE291E00E94710A20E044E150E0BE01FC
:1004F0006F5F7F4F8091BC069091BD060E948C0576
:10050000ECCFCF93DF931F92CDB7DEB7198260E0B7
:1005100080E00E94B0014FEF5FEFBE016F5F7F4F41
:100520008091BC069091BD060E942D06898190E0C5
:100530000E94BE0184E690E00E94710AE8CFCF934A
:10054000DF9300D01F92CDB7DEB70E94800B1982D7
:100550000F2EF2E6EF2EF0E0FF2EF02D8E010E5F53
:100560001F4F4FEF5FEFBE016F5F7F4F8091BC0663
:100570009091BD060E94C60689811F928F93FF92BB
:10058000EF921F930F930E94DA0BC8010E948B0B0E
:1005900084E690E00E94710A0F900F900F900F90E8
:1005A0000F900F90DECF0E946C0140E062E083E08C
:1005B0000E945F059093BD068093BC06892B21F1B4
:1005C000E12CF12C01E020E030E040EF50E065E666
:1005D00070E087E692E00E94FA0720E030E040EF0A
:1005E00050E06CE670E081E892E00E94FA0702E0D9
:1005F00020E030E040EF50E060E770E08FE992E00B
:100600000E94FA070E940709FFCF31E1FC01308305
:10061000319722E220833197A3E3A083319760834F
:100620003197708331971082319760E860833197FA
:100630001082319762E06083319763E06083319785
:1006400064E06083319765E06083319766E06083A2
:10065000319767E06083319768E06083319769E0A4
:100660006083319760E1608331973083319732E165
:100670003083319733E13083319734E130833197E0
:1006800035E13083319736E13083319737E130837C
:10069000319738E13083319739E13083319730E257
:1006A0003083319731E2308331972083319723E2D1
:1006B00020833197408331975083319726E22083FE
:1006C000319727E22083319728E22083319729E26E
:1006D0002083319720E32083319721E3208386977D
:1006E00008951BBC89EF8ABD8BE08EBD89B7806100
:1006F00089BFA091BA06B091BB06CD91CDBFDD9167
:10070000DEBFFF91EF91DF91CF91BF91AF919F91AC
:100710008F917F916F915F914F913F912F911F9199
:100720000F91FF90EF90DF90CF90BF90AF909F9090
:100730008F907F906F905F904F903F902F901F9081
:100740000F900FBE0F90089581E008950F920FB69D
:10075000F8940F921F9211242F923F924F925F9222
:100760006F927F928F929F92AF92BF92CF92DF92C1
:10077000EF92FF920F931F932F933F934F935F93AB
:100780006F937F938F939F93AF93BF93CF93DF9399
:10079000EF93FF93A091BA06B091BB060DB60D92F0
:1007A0000EB60D920E94850AA091BA06B091BB06C2
:1007B000CD91CDBFDD91DEBFFF91EF91DF91CF9164
:1007C000BF91AF919F918F917F916F915F914F9169
:1007D0003F912F911F910F91FF90EF90DF90CF905D
:1007E000BF90AF909F908F907F906F905F904F9051
:1007F0003F902F901F900F900FBE0F9008950F9273
:100800000FB6F8940F921F9211242F923F924F929D
:100810005F926F927F928F929F92AF92BF92CF9290
:10082000DF92EF92FF920F931F932F933F934F937B
:100830005F936F937F938F939F93AF93BF93CF9368
:10084000DF93EF93FF93A091BA06B091BB060DB66C
:100850000D920EB60D920E94370981110E94850AF1
:10086000A091BA06B091BB06CD91CDBFDD91DEBFA0
:10087000FF91EF91DF91CF91BF91AF919F918F91B8
:100880007F916F915F914F913F912F911F910F91A8
:10089000FF90EF90DF90CF90BF90AF909F908F90A0
:1008A0007F906F905F904F903F902F901F900F9090
:1008B0000FBE0F9008950E94FF0318950FB6F8948D
:1008C0000F92FC01928D0F900FBE81E0911180E09C
:1008D00008950F931F93CF93DF93EC01042F1A8D8C
:1008E0004C8D4423B9F1011116C050E08A819B81DF
:1008F0000E94A10B2C8D8A819B81820F911D9B836D
:100900008A832C813D818217930720F18881998108
:100910009B838A831FC050E08E819F810E94A10B20
:100920008C8D90E09195819591092E813F81280FC2
:10093000391F3F832E83488159812417350730F4AE
:100940002C813D81820F931F9F838E83023011F48F
:10095000111111501F5F1A8F80E0DF91CF911F910D
:100960000F910895FC01448D4423A9F050E02681A5
:100970003781240F351F378326838481958128177B
:10098000390720F08081918197838683CB0166812E
:1009900077810E94A10B0895EF92FF920F931F930E
:1009A000CF938C010FB6F8940F92FC01C68D1C16E4
:1009B000ACF48189811106C011C0F80181898111CF
:1009C00005C00CC07801F1E1EF0EF11CC7010E94D7
:1009D000FD0A81110E947C0BC15079F78FEFF8015D
:1009E000868F0F900FBE0FB6F8940F92C58D1C1610
:1009F000ACF48085811106C011C0F8018085811199
:100A000005C00CC07801F8E0EF0EF11CC7010E9490
:100A1000FD0A81110E947C0BC15079F78FEFF8011C
:100A2000858F0F900FBECF911F910F91FF90EF9088
:100A30000895CF93DF93EC010FB6F8940F92E881FD
:100A4000F9818B8D2C8D90E030E0829FA001839FF7
:100A5000500D929F500D11244E0F5F1F5D834C83EC
:100A60001A8EFB83EA830197829FA001839F500D1A
:100A7000929F500D1124CF01840F951F9F838E8369
:100A80008FEF8D8F8E8F61110CC08885882389F040
:100A9000CE0108960E94FD0A882359F00E94A60301
:100AA00008C0CE0108960E94DC01CE0141960E944A
:100AB000DC010F900FBE81E0DF91CF9108950F937D
:100AC0001F93CF93DF93082F162F6623C1F0869FC5
:100AD000C00111244F960E944900EC01009741F497
:100AE00015C00B8F1C8F61E0CE010E9419050EC04E
:100AF0004F9699838883F5CFD983C883F2CF8FE14E
:100B000090E00E944900EC01892BB1F7CE01DF9102
:100B1000CF911F910F9108959F92AF92BF92CF9264
:100B2000DF92EF92FF920F931F93CF93DF9300D04A
:100B300000D01F92CDB7DEB78C016B015D834C8373
:100B4000A22EB12C992493947C0188E0E80EF11C2C
:100B50000FB6F8940F92F801928D838D981718F0C4
:100B6000F2E0AF1219C04A2DB601C8010E94690413
:100B7000F8019189992349F0C80141960E94FD0A24
:100B8000882331F00E94A60303C081110E94A603AE
:100B90000F900FBE81E050C08C819D81892B21F484
:100BA0000F900FBE80E048C0B11005C0CE01019685
:100BB0000E94450BB92C0F900FBE0E9431090FB651
:100BC000F8940F92F801858D8F3F09F4158EF80186
:100BD000868D8F3F09F4168E0F900FBEBE016C5F9D
:100BE0007F4FCE0101960E94500B81111FC00FB69E
:100BF000F8940F92F801928D0F900FBE838D981389
:100C00000FC06C817D81C7010E94EB0AC8010E9460
:100C1000CC040E94F20981119BCF0E94A60398CFB9
:100C2000C8010E94CC040E94F20992CFC8010E9420
:100C3000CC040E94F20980E00F900F900F900F906B
:100C40000F90DF91CF911F910F91FF90EF90DF9068
:100C5000CF90BF90AF909F9008959F92AF92BF9218
:100C6000CF92DF92EF92FF920F931F93CF93DF9378
:100C700000D000D01F92CDB7DEB78C015B015D8341
:100C80004C83E12C992493946C0181E1C80ED11C12
:100C90000FB6F8940F92F801F28CFF20A9F0B5017D
:100CA000C8010E94B204FA94F801F28E808588236C
:100CB00039F0C80108960E94FD0A81110E94A6031E
:100CC0000F900FBE81E051C08C819D81892B21F452
:100CD0000F900FBE80E049C0E11005C0CE01019623
:100CE0000E94450BE92C0F900FBE0E9431090FB6F0
:100CF000F8940F92F801858D8F3F09F4158EF80155
:100D0000868D8F3F09F4168E0F900FBEBE016C5F6B
:100D10007F4FCE0101960E94500B81111AC0C8016D
:100D20000E945E04882379F06C817D81C6010E9457
:100D3000EB0AC8010E94CC040E94F2098111A8CFDD
:100D40000E94A603A5CFC8010E94CC040E94F2090C
:100D50009FCFC8010E94CC040E94F209C8010E94E2
:100D60005E04882309F494CF80E00F900F900F90D9
:100D70000F900F90DF91CF911F910F91FF90EF9007
:100D8000DF90CF90BF90AF909F900895AF92BF92A9
:100D9000CF92DF92EF92FF920F931F93CF93DF9347
:100DA00000D000D01F92CDB7DEB78C016B015D8300
:100DB0004C83B12CAA24A3947C0181E1E80EF11CA0
:100DC0000FB6F8940F92F801828D8823B9F0E6806F
:100DD000F780B601C8010E94B204F801F782E682EA
:100DE0008189882339F0C80141960E94FD0A81114A
:100DF0000E94A6030F900FBE81E051C08C819D819F
:100E0000892B21F40F900FBE80E049C0B11005C0BE
:100E1000CE0101960E94450BBA2C0F900FBE0E9486
:100E200031090FB6F8940F92F801858D8F3F09F4C0
:100E3000158EF801868D8F3F09F4168E0F900FBE28
:100E4000BE016C5F7F4FCE0101960E94500B811155
:100E50001AC0C8010E945E04882379F06C817D81EC
:100E6000C7010E94EB0AC8010E94CC040E94F2094B
:100E70008111A6CF0E94A603A3CFC8010E94CC0473
:100E80000E94F2099DCFC8010E94CC040E94F20981
:100E9000C8010E945E04882309F492CF80E00F907D
:100EA0000F900F900F900F90DF91CF911F910F91A6
:100EB000FF90EF90DF90CF90BF90AF900895E091BA
:100EC0008206F09183068081811107C08FEF9FEF2A
:100ED00090936306809362060895E0918206F091F4
:100EE00083060580F681E02D0680F781E02D828162
:100EF0009381909363068093620608950EE616E050
:100F00000F2EF6E9EF2EF6E0FF2EF02D80916D0604
:100F1000882329F10FB6F8940F92D8011596ED9118
:100F2000FC911697C681D781CE0102960E9440029D
:100F300080916C06815080936C0680916D06815083
:100F400080936D060F900FBE8F89988D0E94E300ED
:100F5000CE010E94E30080916D068111DBCFF70185
:100F60008081823098F20E94A603D0CF0F931F9306
:100F7000CF93DF93EC0100916A0610916B0680918C
:100F8000BA069091BB0602960E944002C00FD11F84
:100F9000E091BA06F091BB06D383C283C017D10794
:100FA00068F46091BA067091BB06809180069091BA
:100FB00081066E5F7F4F0E940F0217C06091BA06D4
:100FC0007091BB0680918206909183066E5F7F4F81
:100FD0000E940F028091620690916306C817D9079C
:100FE00020F4D0936306C0936206DF91CF911F91E6
:100FF0000F9108954F925F926F927F928F929F927E
:10100000AF92BF92CF92DF92EF92FF920F93CF9366
:10101000DF934C016B015A012901CA010E9449006A
:101020003C01892B09F4E2C086E290E00E9449006D
:10103000EC01892B59F0788E6F8A81E0A81AB108EB
:10104000A60CB71CC114D10429F420C0C3010E940E
:10105000E300CCC0D6018C91898F8C918823A1F0BC
:10106000AE01465E5F4FF6013196B8E0CB0ED11C63
:10107000CF012191DA012D93AD01DC018C91882300
:1010800019F0EC15FD05A1F718A201C0198E043066
:1010900008F003E00E8B6E01B2E0CB0ED11CC6014E
:1010A0000E94EA01CE010C960E94EA01D987C88706
:1010B00084E090E0801B91099D878C87DB8BCA8B35
:1010C00019A21AA21BA21CA21DA2A201B401C50151
:1010D0000E94050399838883E114F10419F0F70154
:1010E000D183C0830FB6F8940F9280916C068F5F06
:1010F00080936C068091BA069091BB06892BA9F566
:10110000D093BB06C093BA0680916C068130E9F596
:1011100086E996E00E94DC018FE996E00E94DC01FE
:1011200088EA96E00E94DC0181EB96E00E94DC01F7
:101130008DE896E00E94DC0184E896E00E94DC01E4
:1011400087E796E00E94DC018EE696E00E94DC01D3
:101150008DE896E0909383068093820684E896E07B
:10116000909381068093800610C08091680681115B
:101170000CC0E091BA06F091BB0696898E8989175A
:1011800020F0D093BB06C093BA06809164068F5FAF
:10119000809364068E8990916906981710F4809365
:1011A000690690E09C01220F331F220F331F220F8C
:1011B000331F820F931FB6018A56994F0E94EE018A
:1011C0000F900FBE80916806882361F0E091BA0607
:1011D000F091BB0696898E89981730F40E94A60379
:1011E00081E005C081E003C081E001C08FEFDF91A5
:1011F000CF910F91FF90EF90DF90CF90BF90AF9085
:101200009F908F907F906F905F904F900895EF9296
:10121000FF920F930F2EF0E6EF2EF6E0FF2EF02D4B
:1012200000E020E030E045E550E065E770E08EE763
:1012300097E00E94FA07813081F4F8948FEF9FEFD6
:10124000909363068093620681E080936806109213
:101250006B0610926A060E9471030F91FF90EF9047
:10126000089580915F068F5F80935F060895CF9207
:10127000DF92EF92FF920F931F93CF93DF938091B2
:101280005F06811199C0E0906A06F0906B068FEFBF
:10129000E81AF80AF0926B06E0926A06E114F1048B
:1012A000B9F4809182069091830620918006309156
:1012B0008106309383062093820690938106809363
:1012C0008006809165068F5F809365060E945F07A8
:1012D0008091620690916306E816F90610F4D12C0D
:1012E00053C0D12CCC24C394E0918206F0918306A4
:1012F0008081811107C08FEF9FEF909363068093E9
:10130000620642C0E0918206F09183060580F68174
:10131000E02DC681D7818A819B81E816F90628F4E1
:1013200090936306809362062FC08E010E5F1F4F5D
:10133000C8010E9440028C899D89892B21F0CE0131
:101340000C960E9440028E8990916906981710F4BD
:101350008093690690E09C01220F331F220F331FF8
:10136000220F331F820F931FB8018A56994F0E9494
:10137000EE01E091BA06F091BB069E898689981726
:1013800008F4B2CFDC2CB0CFE091BA06F091BB06E6
:10139000868990E0FC01EE0FFF1FEE0FFF1FEE0F9E
:1013A000FF1F8E0F9F1FFC01EA56F94F808182308C
:1013B00048F0DD24D39406C0809167068F5F809348
:1013C0006706D12C80916606882311F0DD24D39422
:1013D0008D2DDF91CF911F910F91FF90EF90DF90B6
:1013E000CF900895DF92EF92FF920F931F93CF93C8
:1013F000DF930FB6F8940F9280915F06815080932F
:101400005F0680915F0681115FC080916C0681113B
:1014100033C05DC0D7011596ED91FC911697C6813A
:10142000D781CE010C960E9440028E010E5F1F4FA5
:10143000C8010E9440028E8990916906981710F4A5
:101440008093690690E09C01220F331F220F331F07
:10145000220F331F820F931FB8018A56994F0E94A3
:10146000EE01E091BA06F091BB069E898689981735
:1014700068F0D09266060AC0C0E0D0E00F2EF7E711
:10148000EF2EF6E0FF2EF02DDD24D394F7018081BE
:101490008111C0CFCD2B11F00E945F07C09167066C
:1014A000CC2351F0D1E00E9437098111D093660618
:1014B000C150C9F71092670680916606882331F003
:1014C0000E94A60381E003C080E001C080E00F908D
:1014D0000FBEDF91CF911F910F91FF90EF90DF90A2
:1014E0000895CF93DF93EC01892B51F00E943109CD
:1014F00060E0CE010E94B6070E94F209811102C08D
:101500000E94A603DF91CF91089580915F06882302
:1015100021F081E08093660608951092660620917E
:101520006906822F90E0FC01EE0FFF1FEE0FFF1FF8
:10153000EE0FFF1FE80FF91FEA56F94F3081311106
:1015400011C02150822F90E0FC01EE0FFF1FEE0F23
:10155000FF1FEE0FFF1FE80FF91FEA56F94F30810A
:10156000332379F3AC01440F551F440F551F440F2B
:10157000551F480F591FDA01AA56B94F1196ED9120
:10158000FC9112970280F381E02D1296FC93EE936A
:1015900011974756594FE417F50729F442815381B3
:1015A000FD0152834183FC01EE0FFF1FEE0FFF1F71
:1015B000EE0FFF1F8E0F9F1FFC01EA56F94F0180AF
:1015C000F281E02D868197819093BB068093BA06C5
:1015D000209369060895CF93DF93EB016091BA06DB
:1015E0007091BB06645F7F4F0E940F0261E0CE01E5
:1015F0000E94B607DF91CF9108950F931F93CF9369
:10160000DF93DC011596ED91FC911697C681D78189
:101610008E01045F1F4FC8010E94400280915F0647
:1016200081111CC00A501109C8010E9440028E8914
:1016300090916906981710F48093690690E09C01D8
:10164000220F331F220F331F220F331F820F931FCE
:10165000B8018A56994F0E94EE0105C0B80187E78C
:1016600096E00E94EE01E091BA06F091BB069E89D9
:101670008689891720F481E08093660601C080E0A6
:10168000DF91CF911F910F91089520916506FC0184
:10169000208320916A0630916B063283218308955E
:1016A0000FB6F8940F9220916A0630916B06DC0118
:1016B00011964D915C911297E0916506FC91FE1791
:1016C00019F024173507A0F4241B350BFB014081CA
:1016D00051812417350740F4421B530B518340833B
:1016E0000E94450B80E005C01182108281E001C09C
:1016F00081E00F900FBE089581E080936606089503
:1017000087E689B988E18AB986E880BD08955D9B3E
:10171000FECF8CB908950F931F93CF93FC01808166
:10172000882359F08F01C0E00E94870BCF5FF8013A
:10173000EC0FF11D80818111F7CFCF911F910F9197
:101740000895FB01DC0102C001900D924150504010
:10175000D8F708954532510520F4423010F00C942A
:10176000B50BFB011082CB010895BB274A3031F441
:10177000992322F4BDE2909581959F4F0C94C10B63
:10178000BB27FB015527AA27880F991FAA1FA4175B
:1017900010F0A41B83955051B9F7A05DAA3308F04F
:1017A000A95DA193009779F7B111B1931192CB0183
:1017B0000C94F30DAEE0B0E0E0EEFBE00C94AB0E69
:1017C0000D891E8986E08C831A8309838FEF9FE73A
:1017D0009E838D83AE01475E5F4F6F89788DCE010A
:1017E00001960E94FC0BEF81F885E00FF11F10823B
:1017F0002E96E4E00C94C70EABE0B0E0E2E0FCE033
:101800000C949D0E6C017B018A01FC0117821682EB
:10181000838181FFCCC1CE0101963C01F601938109
:10182000F70193FD859193FF81917F01882309F44E
:10183000BAC1853239F493FD859193FF81917F017F
:10184000853229F4B60190E00E94030EE7CF912C77
:10185000212C312CFFE1F315D8F08B3279F038F4DC
:10186000803279F08332A1F4232D20611DC08D32A6
:1018700061F0803369F4232D216016C0832D8260CE
:10188000382EE32DE4603E2E2AC0F32DF8601DC0F3
:1018900037FC2DC020ED280F2A3040F08E32B9F4ED
:1018A00036FC81C1232D2064322E19C036FE06C0BD
:1018B0008AE0989E200D1124922E11C0EAE02E9EFF
:1018C000200D1124222EF32DF0623F2E08C08C36FD
:1018D00021F4832D8068382E02C0883641F4F70148
:1018E00093FD859193FF81917F018111B3CF982F53
:1018F0009F7D9554933028F40C5F1F4F9FE399838D
:101900000DC0833631F0833771F0833509F059C04B
:1019100021C0F801808189830E5F1F4F8824839442
:10192000912C530113C02801F2E04F0E511CF80115
:10193000A080B18036FE03C0692D70E002C06FEF59
:101940007FEFC5010E94E80D4C018201F32DFF7766
:101950003F2E16C0280122E0420E511CF801A08043
:10196000B18036FE03C0692D70E002C06FEF7FEFDB
:10197000C5010E94DD0D4C01F32DF0683F2E820160
:1019800033FC1BC0822D90E088169906B0F4B60196
:1019900080E290E00E94030E2A94F4CFF50137FC18
:1019A000859137FE81915F01B60190E00E94030EA0
:1019B00021102A9421E0821A91088114910471F770
:1019C000E8C0843611F0893641F5F80137FE07C0CA
:1019D00060817181828193810C5F1F4F08C060819B
:1019E0007181072E000C880B990B0E5F1F4FF32D92
:1019F000FF763F2E97FF09C0909580957095619571
:101A00007F4F8F4F9F4FF0683F2E2AE030E0A301B9
:101A10000E943F0E882E861845C0853731F4232D4D
:101A20002F7EB22E2AE030E025C0932D997FB92E6B
:101A30008F36C1F018F4883579F0B5C0803719F0C9
:101A4000883721F0B0C0E92FE061BE2EB4FE0DC092
:101A5000FB2DF460BF2E09C034FE0AC0292F26607A
:101A6000B22E06C028E030E005C020E130E002C020
:101A700020E132E0F801B7FE07C060817181828108
:101A800093810C5F1F4F06C06081718180E090E000
:101A90000E5F1F4FA3010E943F0E882E8618FB2D5C
:101AA000FF773F2E36FE0DC0232D2E7FA22E8914E8
:101AB00058F434FE0BC032FC09C0832D8E7EA82E54
:101AC00005C0B82CA32C03C0B82C01C0B92CA4FEAF
:101AD0000FC0FE01E80DF11D8081803321F49A2DA5
:101AE000997EA92E09C0A2FE06C0B394B39404C087
:101AF0008A2D867809F0B394A3FC11C0A0FE06C01D
:101B0000B21488F4280C922C9B180EC0B21460F406
:101B1000B60180E290E00E94030EB394F7CFB214B6
:101B200018F42B1802C0982C212CA4FE10C0B6016A
:101B300080E390E00E94030EA2FE17C0A1FC03C048
:101B400088E790E002C088E590E0B6010CC08A2DDD
:101B5000867859F0A1FE02C08BE201C080E2A7FCAA
:101B60008DE2B60190E00E94030E891438F4B601AC
:101B700080E390E00E94030E9A94F7CF8A94F301D9
:101B8000E80DF11D8081B60190E00E94030E8110E6
:101B9000F5CF222009F442CEB60180E290E00E9407
:101BA000030E2A94F6CFF6018681978102C08FEF4B
:101BB0009FEF2B96E2E10C94B90EFC010590615069
:101BC00070400110D8F7809590958E0F9F1F089553
:101BD000FC016150704001900110D8F780959095FC
:101BE0008E0F9F1F0895DC01FC01672F71917723F1
:101BF000E1F7329704C07C916D9370836291AE17C8
:101C0000BF07C8F308950F931F93CF93DF93FB0192
:101C1000238121FD03C08FEF9FEF2CC022FF16C050
:101C200046815781248135814217530744F4A081AE
:101C3000B1819D012F5F3F4F318320838C9326819B
:101C400037812F5F3F4F3783268314C08B01EC0110
:101C5000FB010084F185E02D0995892BE1F6D8017F
:101C600016968D919C911797019617969C938E933B
:101C70001697CE01DF91CF911F910F910895FA0130
:101C8000AA27283051F1203181F1E8946F936E7FBB
:101C90006E5F7F4F8F4F9F4FAF4FB1E03ED0B4E0AC
:101CA0003CD0670F781F891F9A1FA11D680F791FED
:101CB0008A1F911DA11D6A0F711D811D911DA11DFE
:101CC00020D009F468943F912AE0269F112430190E
:101CD000305D3193DEF6CF010895462F4770405DA9
:101CE0004193B3E00FD0C9F7F6CF462F4F70405D58
:101CF0004A3318F0495D31FD4052419302D0A9F7B3
:101D0000EACFB4E0A6959795879577956795BA95AC
:101D1000C9F700976105710508959B01AC010A2E72
:101D200006945795479537952795BA95C9F7620F49
:101D3000731F841F951FA01D08952F923F924F92ED
:101D40005F926F927F928F929F92AF92BF92CF924B
:101D5000DF92EF92FF920F931F93CF93DF93CDB754
:101D6000DEB7CA1BDB0B0FB6F894DEBF0FBECDBFCC
:101D700009942A88398848885F846E847D848C849D
:101D80009B84AA84B984C884DF80EE80FD800C81A6
:101D90001B81AA81B981CE0FD11D0FB6F894DEBF89
:0C1DA0000FBECDBFED010895F894FFCFF9
:101DAC00DB052564006B6579706164004C4344006D
:0A1DBC00554152540049444C4500C3
:00000001FF
